:020000040000FA
:100000000C9462000C948A000C948A000C940104F5
:100010000C948A000C948A000C948A000C948A0038
:100020000C948A000C948A000C948A000C948A0028
:100030000C948A000C948A000C948A000C948A0018
:100040000C94B7030C948A000C948A000C948A00D8
:100050000C948A000C948A000C948A000C948A00F8
:100060000C948A000C948A0000000009000302002E
:10007000000405080000000000000000000000006F
:10008000000000250028002B0000000000240027AD
:10009000002A00040404040404040402020202020C
:1000A00002030303030303020203010204081020F6
:1000B0004080010204081020010204081020408042
:1000C0004000740511241FBECFEFD8E0DEBFCDBFC6
:1000D00011E0A0E0B1E0E2EDFBE002C005900D927E
:1000E000AC35B107D9F721E0ACE5B1E001C01D9214
:1000F000AF39B207E1F710E0C2E6D0E004C02197C3
:10010000FE010E94E105C136D107C9F70E946004D3
:100110000C94E7050C94000090E0FC01E655FF4FBD
:1001200024918D569F4FFC018491882399F090E093
:10013000880F991FFC01E757FF4FA591B491FC016F
:10014000E158FF4F859194918FB7F894EC91E22B91
:10015000EC938FBF08952F923F924F925F926F92D0
:100160007F928F929F92AF92BF92CF92DF92EF9247
:10017000FF920F931F93CF93DF93CDB7DEB72A97EC
:100180000FB6F894DEBF0FBECDBF6B017C0160904F
:100190008B01062D10E0C801880F991F880F991F49
:1001A000FC01ED5CFE4F40815181628173814150C1
:1001B0005109610971099E012F5F3F4F49014C159B
:1001C0005D056E057F05C4F4F40185E29E2F981944
:1001D000961508F462C08EE891E0D4012A2F281900
:1001E000261508F074C0ED91F0E0E65FFE4F208127
:1001F000FC012193CF01F2CF815D9E4FFC01408134
:1002000051816281738181E090E0A0E0B0E0841BC5
:10021000950BA60BB70BC816D906EA06FB06A4F287
:10022000712CF7FE0CC085E28983F094E094D094A1
:10023000C094C11CD11CE11CF11C77247394A72C21
:10024000B12C9801215031093A8729870A191B09D5
:10025000000F111F000F111F0D5C1E4FA80CB91CC1
:100260007614E8F4F80152904290329022908F0177
:10027000C701B601A20191010E948605F5012193F3
:100280005F01A22FB0E0A20191010E94A505C61A4C
:10029000D70AE80AF90A7394E3CF819397CF809144
:1002A0007A01811198CF24E2E82FF0E049855A8540
:1002B000E417F5070CF08FCFE80DF91D908191112F
:1002C00003C020838F5FF0CF9A30E0F784CF2A9667
:1002D0000FB6F894DEBF0FBECDBFDF91CF911F9157
:1002E0000F91FF90EF90DF90CF90BF90AF909F90D5
:1002F0008F907F906F905F904F903F902F900895D8
:1003000080E480937C0080917A00806480937A00FE
:1003100080917A0086FDFCCF8091780090917900E1
:10032000089590E0FC01E859FF4F2491FC01E65547
:10033000FF4F3491FC01ED56FF4FE491EE23C9F0DD
:10034000222339F0243001F1A8F4223069F123305E
:1003500079F1F0E0EE0FFF1FE158FF4FA591B49146
:100360008FB7F894EC91611126C030953E233C93F1
:100370008FBF0895283071F0293091F0253049F76A
:10038000809180008F7D03C0809180008F77809363
:100390008000DFCF8091B0008F778093B000D9CFFD
:1003A0008091B0008F7DF9CF84B58F7784BDD1CF98
:1003B00084B58F7DFBCF3E2BDACFCF93DF93C82F51
:1003C000D0E080918C01D81758F4ED2FF0E0EC5874
:1003D000FE4F6091770187850E949101DF5FF1CF29
:1003E000EC2FF0E0EC58FE4F609175018781DF91B2
:1003F000CF910C949101CF93DF93C82FD0E08091DF
:100400008B01D81758F4ED2FF0E0EC58FE4F6091B7
:10041000750187810E949101DF5FF1CFEC2FF0E041
:10042000EC58FE4F609177018785DF91CF910C9456
:1004300091011F93CF93DF93C82FD0E0CC58DE4FAC
:10044000609174018F810E94910110E06A96809101
:100450008C011817A8F4E12FF0E0888190E0012EBC
:1004600002C0959587950A94E2F780FF07C0EC5883
:10047000FE4F6091760187850E9491011F5FE7CF53
:10048000DF91CF911F9108950F931F93CF93C82FA2
:10049000E82FF0E0EC58FE4F6091760187850E94CE
:1004A000910101E010E002C0000F111FCA95E2F7B0
:1004B000C0E080918B01C81788F4EC2FF0E0EC5875
:1004C000FE4F828D90E080239123892B29F060914B
:1004D000740187810E949101CF5FEBCFCF911F9173
:1004E0000F9108958230910538F0880F991F880F79
:1004F000991F05970197F1F708953FB7F8948091F8
:10050000700190917101A0917201B091730126B5B3
:10051000A89B05C02F3F19F00196A11DB11D3FBF3B
:10052000BA2FA92F982F8827BC01CD01620F711D0A
:10053000811D911D42E0660F771F881F991F4A9504
:10054000D1F708958F929F92AF92BF92CF92DF9290
:10055000EF92FF920E947D024B015C018AEFC82E50
:10056000D12CE12CF12C0E947D02681979098A09AD
:100570009B09683E734081059105A8F321E0C21AEA
:10058000D108E108F10888EE880E83E0981EA11CCE
:10059000B11CC114D104E104F10429F7FF90EF90DC
:1005A000DF90CF90BF90AF909F908F900895CF92A3
:1005B000DF92EF92FF920F931F93CF938091790177
:1005C000811183C00E947D0240919E01009196019D
:1005D0001091970120919801309199016B017C0154
:1005E000C01AD10AE20AF30A00919C0110919D0100
:1005F000411104C000919A0110919B01012E000C41
:10060000220B330BC016D106E206F3069CF1609371
:10061000960170939701809398019093990180912E
:100620008D012091780121112DC04423C1F0109239
:100630009E0180918D018F5F80938D0190918C013F
:10064000891710F010928D0180918D01CF911F912B
:100650000F91FF90EF90DF90CF900C9444020E9496
:10066000FB0180919C0190919D01892B11F381E008
:1006700080939E01CF911F910F91FF90EF90DF909B
:10068000CF9008954423C1F010929E0180918D0176
:100690008F5F80938D0190918B01891710F01092DC
:1006A0008D0180918D01CF911F910F91FF90EF905F
:1006B000DF90CF900C9419020E94DD0180919C0183
:1006C00090919D01892B11F3D2CF80917801C0E0E8
:1006D00081111AC080918C01C81760F68C2F0E947E
:1006E000440280919A0190919B010E9472028C2F8A
:1006F0000E94FB0180919C0190919D01009711F057
:100700000E947202CF5FE6CF80918B01C81708F07C
:10071000B1CF8C2F0E94190280919A0190919B0178
:100720000E9472028C2F0E94DD0180919C019091A9
:100730009D01009711F00E947202CF5FE5CF80917A
:100740000801909109018430910574F40196909309
:1007500009018093080110926501109264011092C2
:10076000670110926601089581E090E0F0CF1F923A
:100770000F920FB60F9211242F933F938F939F9355
:10078000AF93BF9380916C0190916D01A0916E0128
:10079000B0916F0130916B0123E0230F2D3768F189
:1007A00026E8230F0296A11DB11D20936B018093B3
:1007B0006C0190936D01A0936E01B0936F018091D5
:1007C000700190917101A0917201B0917301019635
:1007D000A11DB11D8093700190937101A0937201CE
:1007E000B0937301BF91AF919F918F913F912F91E2
:1007F0000F900FBE0F901F9018950196A11DB11D6F
:10080000D4CF1F920F920FB60F921124CF92DF9286
:10081000EF92FF922F933F934F935F936F937F934A
:100820008F939F93AF93BF93EF93FF938FB7F894FA
:10083000C0906C01D0906D01E0906E01F0906F015E
:100840008FBFC0926001D0926101E0926201F0928C
:10085000630180915C0190915D01A0915E01B09176
:100860005F01A7019601281B390B4A0B5B0BDA01CC
:10087000C901893C9105A105B10528F00E949F039B
:1008800081E080936A01C0925C01D0925D01E092A8
:100890005E01F0925F01FF91EF91BF91AF919F9147
:1008A0008F917F916F915F914F913F912F91FF9029
:1008B000EF90DF90CF900F900FBE0F901F90189584
:1008C000789484B5836084BD85B5836085BD80914F
:1008D0006E00816080936E0082E080938100809141
:1008E000810081608093810080918000816080938D
:1008F00080008091B10084608093B1008091B0004D
:1009000081608093B00087E880937A001092C100E4
:1009100081E0809378011092790110927A0180939E
:100920008B0198E090938C01109274018093760172
:100930008093750110927701E0E0F1E0A3E8B1E067
:1009400088E091E021912D938E179F07D9F7809130
:10095000640180937B01C0E080918B01C81780F413
:100960000C2F10E00C581E4FF80187810E948C005C
:1009700060917501F80187810E949101CF5FECCFF2
:10098000C0E080918C01C81750F090918B01EEE887
:10099000F1E080E0981799F011928F5FFBCF0C2F58
:1009A00010E00C581E4FF80187850E948C00609162
:1009B0007701F80187850E949101CF5FE2CF80E047
:1009C0000E94FB0180E00E94DD018CED95E0909398
:1009D0009B0180939A0110929D0110929C011092AC
:1009E0009E018091680081608093680080916B0017
:1009F000846080936B00789400E010E0789410920B
:100A00006A01C0900801D09009010D2C000CEE087D
:100A1000FF08C701B6010E94AB000E94D7020E94E6
:100A20008001909369018093680110926701109290
:100A300066011092650110926401C0916401D09129
:100A400065018091680190916901833C9140CCF0EF
:100A5000C630D105B4F40E9480019093690180935F
:100A600068010E94A202C701B6010E94AB000E9469
:100A7000D7020E94A2022196D0936501C09364011F
:100A8000DCCFC630D1054CF18091660190916701B1
:100A900006970CF50E94800190936901809368018C
:100AA000833C914024F010926701109266010E94ED
:100AB000A202C701B6010E94AB000E94D7020E94A9
:100AC000A20280916601909167010196909367015F
:100AD00080936601D6CF0E949F030115110509F48A
:100AE0008DCF0E9400008ACFE4E7F1E080ED97E02F
:100AF00097A386A311A610A612A6178A118E12A27A
:100B000013A214A215A2148215820895052E97FB34
:100B10001EF400940E949D0557FD07D00E94B00569
:100B200007FC03D04EF40C949D05509540953095EC
:100B300021953F4F4F4F5F4F089590958095709549
:100B400061957F4F8F4F9F4F08950E94D205A59FBB
:100B5000900DB49F900DA49F800D911D11240895B8
:100B6000A1E21A2EAA1BBB1BFD010DC0AA1FBB1FB1
:100B7000EE1FFF1FA217B307E407F50720F0A21B23
:100B8000B30BE40BF50B661F771F881F991F1A9490
:100B900069F760957095809590959B01AC01BD01BA
:100BA000CF010895A29FB001B39FC001A39F700D14
:100BB000811D1124911DB29F700D811D1124911D65
:100BC0000895EE0FFF1F0590F491E02D0994F8941D
:100BD000FFCF030208070604050901003F065B4F2B
:100BE000666D7D077F6F777C395E79713D76300E5B
:100BF000763800543F7367506D783E3E00766E5BEA
:100C00000040806308010000000A0000006400004A
:100C100000E803000010270000A086010040420FFA
:0E0C2000008096980000E1F50500CA9A3B009E
:107E8000112424B614BE80E07ED021FEEBC08EE02B
:107E90007AD0E0ECF0E0AFE7BFEF4899FECF9096E4
:107EA000489BFDCFB4831197F1F7B2E0B083B8E1FE
:107EB000B18357D0C82F823559F46BD0E0E8FEE784
:107EC000E058F109A89583E089D03097C9F73FC001
:107ED0008D7FF1F453D0D82FA0E0B1E042D08D9344
:107EE000DA13FCCF56D0C1110FC0A0E0B1E0F99970
:107EF000FECF1FBAF2BDE1BD8D9180BDFA9AF99A0D
:107F00003196DA13F4CF23C0A0E0B1E04CD01FC00B
:107F1000C33041F433D0C82F3CD085911BD0C15021
:107F2000E1F715C0C13071F429D0C82F32D0F999CA
:107F3000FECFF2BDE1BDF89A80B50CD03196C150AC
:107F4000B1F705C0C13511F488E01DD022D087E714
:107F500001D0AFCF9091C00095FFFCCF8093C600B9
:107F600008952D9A259A8091C00087FFFCCF84FD4B
:107F700013C0A8958091C6002D980895F2DFE82FD0
:107F8000F0DFF82FEECF98E19093600080936000CF
:107F90000895E7DF803219F088E0F5DFFFCF80EA4F
:107FA000D9CFFB01DC0160E86A0F9F01E0388EE762
:107FB000F807C8F483E012D0309629F48FE38D934C
:107FC0008FEC8C93119781E00D901D9007D0329625
:107FD000A613FACFF90185E001D081E187BFE895CA
:0A7FE00007B600FCFDCF1124089540
:067FFA000319D2CFE73F9E
:00000001FF
